:100000000C9434000C9449000C9449000C94490061
:100010000C9449000C9449000C9449000C9449003C
:100020000C9449000C9449000C9449000C9449002C
:100030000C9449000C9449000C9449000C9449001C
:100040000C9449000C9449000C9449000C9449000C
:100050000C9449000C9449000C9449000C944900FC
:100060000C9449000C94490011241FBECFEFD8E036
:10007000DEBFCDBF11E0A0E0B1E0E0EDF0E002C0F6
:1000800005900D92A431B107D9F70E944B000C9452
:1000900066000C9400008AB18C6F8AB9209AA0E0A7
:1000A000B1E0EBE0F1E080E08BB98D9185B92FEF05
:1000B00089E698E1215080409040E1F700C00000BF
:1000C00021E0E431F20759F38191EECFF894FFCFAC
:1000D0000101000000000001000000E490C064483D
:0400E00008E00040F4
:00000001FF
