:100000000C9434000C943E000C943E000C943E0082
:100010000C943E000C943E000C943E000C943E0068
:100020000C943E000C943E000C943E000C943E0058
:100030000C943E000C943E000C943E000C943E0048
:100040000C943E000C943E000C943E000C943E0038
:100050000C943E000C943E000C943E000C943E0028
:100060000C943E000C943E0011241FBECFEFD8E04C
:10007000DEBFCDBF0E9440000C9457000C940000DE
:100080008AB1877E8AB9529A07C05A988FE39CE951
:100090000197F1F700C0000099B189B193FB99274E
:1000A00090F9829581709813F0CF5A9AEFCFF89417
:0200B000FFCF80
:00000001FF
