:100000000C9434000C943E000C943E000C943E0082
:100010000C943E000C943E000C943E000C943E0068
:100020000C943E000C943E000C943E000C943E0058
:100030000C943E000C943E000C943E000C943E0048
:100040000C943E000C943E000C943E000C943E0038
:100050000C943E000C943E000C943E000C943E0028
:100060000C943E000C943E0011241FBECFEFD8E04C
:10007000DEBFCDBF0E9440000C945C000C940000D9
:1000800084B1807F84B985B18F6085B98AB18C6372
:100090008AB983B180959BB18F70880F880F937C4C
:1000A000892B8BB92FEF89E698E121508040904051
:0C00B000E1F700C00000EDCFF894FFCF96
:00000001FF
